:020000040800F2
:1000000040110020DD0A0008E12E0008C90A00089E
:10001000C90A0008C90A0008C90A0008000000004F
:10002000000000000000000000000000110B0008AC
:10003000C90A000800000000CD0C000839190008AA
:10004000450D0008450D0008450D0008450D000848
:10005000450D0008450D0008450D0008450D000838
:10006000450D0008450D0008450D0008450D000828
:10007000450D0008450D0008450D0008450D000818
:10008000450D0008450D0008450D0008450D000808
:10009000450D0008450D0008450D0008450D0008F8
:1000A000450D0008450D0008450D0008450D0008E8
:1000B000450D0008450D0008450D0008450D0008D8
:1000C000450D0008450D0008450D0008450D0008C8
:1000D000450D0008450D0008450D0008450D0008B8
:1000E000450D0008450D0008450D0008450D0008A8
:1000F000450D0008450D0008450D0008450D000898
:10010000450D0008450D0008450D0008450D000887
:10011000450D0008450D0008450D0008450D000877
:10012000450D0008450D0008450D0008450D000867
:10013000450D0008450D0008450D0008450D000857
:10014000450D0008450D0008450D0008450D000847
:1001500053B94AB9002908BF00281CBF4FF0FF312E
:100160004FF0FF3000F00CB8ADF1080C6DE904CE93
:1001700000F008F8DDF804E0DDE9022304B0704780
:10018000704700BF2DE9F0478C468E46089E154605
:1001900004461946002B40F0D080724547D9B2FA88
:1001A00082F74FB1C7F120030EFA07FC20FA03F3E0
:1001B000BD4043EA0C0CBC404FEA154EA8B2BCFB54
:1001C000FEF8230C0EFB18CC08FB00F943EA0C43A5
:1001D000994528D9EB1808F1FF3204D2994502D984
:1001E000A8F102022B44A3EB0903A4B2B3FBFEFC6B
:1001F0000EFB1C330CFB00F044EA0344A04214D96C
:100200002C190CF1FF3304D2A04202D9ACF1020345
:100210002C44241A43EA02401EB1FC4000233460FF
:100220007360BDE8F0874246DDE76346F1E7002AE8
:1002300079D0B2FA82F3002B3FD01946C1F12003E6
:1002400002FA01F52EFA03F20EFA01FE20FA03F388
:1002500043EA0E034FEA154E00FA01F4B2FBFEFC2E
:10026000AFB20EFB1C201A0C0CFB07F842EA00424E
:1002700090455AD9AA180CF1FF3004D2904502D902
:10028000ACF102002A44A2EB08029BB2B2FBFEFCD6
:100290000EFB1C220CFB07F743EA02439F4246D9A0
:1002A000EB180CF1FF3204D29F4202D9ACF10202EA
:1002B0002B44DB1B42EA004202E0AEEB02030122C8
:1002C0004FEA154EAFB2B3FBFEFC200C0EFB1C3305
:1002D0000CFB07F840EA034398452AD9EB180CF1C8
:1002E000FF3004D2984502D9ACF102002B44A3EBB5
:1002F0000803A4B2B3FBFEFC0EFB1C330CFB07F798
:1003000044EA0344A74216D92C190CF1FF3304D256
:10031000A74202D9ACF102032C44E41B43EA00409B
:100320000F46114678E71F2188E76046ABE7624633
:10033000BFE76046DBE76346EFE7734506D916B9CA
:10034000002108466DE7C6E9000EF9E7B3FA83F726
:1003500087B9734501D3824207D8841A6EEB030331
:1003600001209C461EB900215BE73846FAE7C6E942
:10037000004CF8E7C7F1200CBB4022FA0CF51D43F6
:1003800020FA0CF12EFA0CF30EFA07FE41EA0E01E8
:100390004FEA154900FA07F4B3FBF9F81FFA85FE96
:1003A00009FB18300B0C08FB0EFA43EA00439A4590
:1003B00002FA07F240D9EB1808F1FF3004D29A454F
:1003C00002D9A8F102002B44A3EB0A0389B2B3FBC4
:1003D000F9F809FB183308FB0EFE41EA03418E458C
:1003E0002CD9691808F1FF3304D28E4502D9A8F13F
:1003F0000203294443EA0040A0FB0298A1EB0E014E
:100400004145CE46434602D306D14C4504D2B9EB12
:10041000020E68EB05030138002EA4D0B4EB0E02E7
:1004200061EB030101FA0CFC22FA07F34CEA030327
:10043000F940C6E9003196E74046C5E74346D9E7AB
:1004400010B5174C204603F093F920B9154802F077
:100450009CFC002010BD2269A168136843F400537E
:1004600013600B68104A0D2120469847002801DAD6
:100470000E48ECE701220D21204602F008FC002185
:1004800042F2107003F007FA00220D21204602F01C
:10049000FEFB002142F2107003F0FDF9EAE700BF15
:1004A0002C3B0008D63F000801000600E83F00088A
:1004B00008B5024802F069FC002008BDFF3F0008B3
:1004C000014B1B68184700BF00000020014B18605B
:1004D000704700BF0000002030B5044685B00D46CF
:1004E00010220021684603F008FA02238DF802303A
:1004F0002A46044B01932146684602F083F905B071
:1005000030BD00BFC1040008034A536823F0020352
:1005100053600020704700BF002004E008B5416828
:10052000054883681B680C311BB1984700EAE070EE
:1005300008BD6FF05700F9E7683A0008072810B5C2
:1005400002D90024204610BD044B53F82040204619
:1005500003F00EF90028F5D1F3E700BF1C3F0008B7
:10056000084B1A6842F480721A601A6842F40072EA
:100570001A601A6842F480621A60034B034A1A60D8
:10058000704700BF003C0240280000200024F40017
:10059000014B0360002070473C3F000880B50546D2
:1005A0000E461746984601F007FF034600F0DCFBB5
:1005B000DFF81890044649F8003042463046394684
:1005C000A84754F8090000F06BFB00BF08000000CA
:1005D00008B50348034A0021121A02F079FC08BD4D
:1005E00068000020780300200748084A084908B539
:1005F000121A02F06FFC0748074A0849BDE8084094
:10060000121A02F067BC00BF000000206400002046
:100610004445000800000020000000204445000878
:1006200038B505460C4699B1D1E901230F48096850
:1006300002F0ABFBD4E90423E1680D4802F0A5FB0E
:10064000E1690C4802F0A1FBA1690B4802F09DFB97
:10065000012D05D1EFF305810848103902F095FB13
:1006600021462846BDE8384001F0A8BAAA40000853
:10067000DA4000080A4100081A4100084941000810
:1006800030BFFFF7FDBF00BF2DE9F0410B4EDFF893
:10069000308006EB0807CC1B054632460949204648
:1006A00003F01DF9A01942460021083C03F025F98A
:1006B0002C6707F10800BDE8F08100BF00000000D2
:1006C00004000000743E00082DE9F843324D8046D6
:1006D00032488946174602F058FBAB6ADE0622D53F
:1006E0002F4802F052FB1124AB6A1D0703D52D4899
:1006F00002F04BFB1224284DAB6A980715D52A4807
:1007000002F043FB6E6BAB6A190642D527483146AF
:1007100002F03BFBB9F1000F03D0AB6A23F080037A
:10072000AB62132403E01024DEE76FF015061A4DC8
:10073000AB6ADA0703D51E4802F027FB1424AB6A24
:100740009B0603D51B4802F020FB1524124B9A6A26
:10075000D50602D49A6A90070AD55B68190507D5B1
:100760004146304600F052FA10B180F30988022465
:10077000094B9A6A920642BF5A6A22F400525A62A0
:100780009A6A42F0FF029A6200233B702046BDE85D
:10079000F8836FF01506C4E700ED00E05D41000846
:1007A00074410008A8410008BC410008D541000878
:1007B000EC4100080C42000810B51D4C1D4802F029
:1007C000E4FAA36A990130D51B4802F0DEFA1E2034
:1007D000A36ADA0103D5194802F0D7FA1F20144C96
:1007E000A36A1B0303D5164802F0CFFA2120A36A9F
:1007F000590303D5134802F0C8FA22200C4CA36A0F
:100800009A0303D5104802F0C0FA2320A36ADB0341
:1008100003D50E4802F0B9FA2420054A936A6FEA1C
:1008200003436FEA1343936210BD1D20D0E700BF5E
:1008300000ED00E03C420008554200086942000813
:1008400084420008A3420008C9420008E4420008AC
:1008500070B5244C064624480D4602F096FAA36A69
:10086000D90435D5214802F090FA1720A36A1A0559
:1008700003D51F4802F089FA18201A4CA36A9B0579
:100880000FD51C4802F081FAA16BA36A180407D5A2
:10089000194802F07AFA1EB1A36A23F40043A36256
:1008A0001920104CA36A590503D5144802F06DFABB
:1008B0001A20A36ADA050DD5114802F066FA1B204A
:1008C000084A936A43F47F43936200232B7070BD00
:1008D0001620CBE7A36A9B04F2D50A4802F055FA2A
:1008E0001C20EDE700ED00E010430008274300085E
:1008F000A841000839430008534300086943000831
:10090000854300080C4200082DE9F0415D4B5F680B
:100910008AB00446C7F30806002585F31188BFF3A3
:100920006F8F02F07F43B3F17F4F06D102F00C03CB
:10093000082B13D1544802F028FA00252C464FF01A
:100940000008F31E8DF80780092B00F28C80DFE889
:1009500003F00A80847C8A8A8A8A8A8810074CBFBE
:100960000C460125EBE74948464E02F00EFA8DF899
:100970000780F36A9A0704D5454802F006FA002377
:100980002AE0F36A002B01DA4248F6E7F36A5B00DB
:10099000F5D5414802F0F9F97369A26943F480730F
:1009A0007361BFF34F8FBFF36F8F32F8023C7269F0
:1009B00022F480727261BFF34F8FBFF36F8F03F425
:1009C0007F42B2F55F4F27D1DBB2022B24D12168E1
:1009D000324802F0DAF923689DF80720CAB902AE5E
:1009E00004F1200720686168324603C20834BC4223
:1009F0001646F7D1099A002D41D0C2F3080121B95A
:100A00006FEA52226FEA4222099202A91846FFF7C2
:100A100007FE0AB0BDE8F0811A4B9A6AD2B232B131
:100A20000DF1070201212046FFF74EFE0FE09A6A02
:100A300012F47F4F05D00DF107010120FFF708FFE9
:100A400005E09B6AB3F5803F99D3FFF7B5FE0346F7
:100A5000C2E70DF107020021E5E70DF107010020D3
:100A6000ECE70F4889E70F4B0F49104817F4F87F60
:100A7000A6F1100208BF194602F087F97FE76FF36D
:100A80000802C1E700ED00E0CC430008F84300088D
:100A90001044000832440008414400086144000842
:100AA0007E4400089E430008B3430008A3440008A6
:100AB000044B5A6942F010025A615A6922F0080246
:100AC0005A61704700ED00E0EFF30880EFF3098111
:100AD00001B57246FFF718FF01BD00BF0A4880F359
:100AE0000888102080F3118808484FF404614018EA
:100AF00080F30988EFF314800221084380F31488FF
:100B0000BFF36F8F00F04AF84011002080030020EF
:100B10001EF0040F0CBFEFF30880EFF3098081692A
:100B200011F8021C0229FFD001B5724602F0D4F977
:100B300001BD00BF40B2002807DB044A4109012380
:100B400000F01F00834042F82130704700E100E0D0
:100B500040B20028A8BF00F1604001F10101B8BF18
:100B6000064B4FEA0111ACBF00F5614000F00F00E9
:100B7000C9B2B4BF195480F80013704714ED00E0F7
:100B8000044B054A23F07F039360BFF34F8FBFF3FD
:100B90006F8F70470000000800ED00E008B5FFF718
:100BA000EFFF0B4AD2F8883023F47003C2F8883084
:100BB000EFF3148323F0040383F31488BFF36F8FE0
:100BC000FFF706FDFFF710FD00F0B0F801F0C8F8E0
:100BD00000ED00E042F8203C009B42F81C3C0A4932
:100BE000019B42F8183C029B42F8143C21F00101A1
:100BF0004FF0807342F8043C42F8081C0023203A6E
:100C000002654367704700BF9D050008094A034617
:100C1000906870B113F1160F006E05D0A0F140027C
:100C2000934205D3834203D2814228BF00207047FC
:100C3000002070474403002008B515460B4A0C4BB2
:100C40009060026F1A600E4600F0A0F82C4686F302
:100C500009880020034B98472046002100220023EA
:100C6000014C2047FD2E00089D050008440300208C
:100C700098020020014B10221A61704700ED00E03D
:100C8000054B5A699B689A421FBF044A536843F058
:100C900080535360704700BF4403002000ED00E024
:100CA000084B9B6883420BD1EFF3058343B1064B9E
:100CB0005A6842F080525A605A6A22F400425A62DC
:100CC00002F077BD4403002000ED00E014498A687B
:100CD0004FF030001044EFF3098C80E8F01F102033
:100CE00080F31288BFF36F8F0E4F4FF000664A6992
:100CF0008A603E60106F0C4C2060506F0023536779
:100D000080F3118804B5104600F040F8BDE80440B7
:100D100002F1300090E8F01F8CF309887047000062
:100D20004403002004ED00E0980200200448002362
:100D30001021C2180133442B82F80013F9D17047F7
:100D400000E100E008B5EFF30583064A103B02EB33
:100D5000C30152F8330049688847BDE80840FFF7EF
:100D60008FBF00BFB83B0008014800687047000013
:100D700098020020024B034A0348012100F076B894
:100D800000000220000000203C3F0008036E054ADE
:100D9000403B1360044B4021C2E90113104601217E
:100DA00000F06EB89C02002000000B15084AC2F843
:100DB00098000B6823F01F03034343F01003C2F8AD
:100DC0009C308B6843F00103C2F8A030704700BF2D
:100DD00000ED00E02DE9F043DFF8608085B00E46BD
:100DE0001F4604464FF00009B14523DA6068D8B1C8
:100DF0003FB1411E08421BD11F2819D9236819424F
:100E000016D12368019302F08DF8A368034303937E
:100E1000D8F89050C5F30725D0B2013DA84207D8B5
:100E200001A9FFF7C3FF421C09F101090C34DBE7FC
:100E30006FF01502104605B0BDE8F08300ED00E04C
:100E4000044B0522C3F89420BFF34F8FBFF36F8F7D
:100E5000704700BF00ED00E0BFF35F8F024B002240
:100E6000C3F89420704700BF00ED00E010B5034CBC
:100E700001232278FFF7AEFF207010BD740300201D
:100E800008B50B4A00231278FFF7A4FF10F1160FE4
:100E900007D0084A0021D2F89030C3F307239842C4
:100EA00000DB08BDC2F89800C2F8A0100130F2E7DC
:100EB0007403002000ED00E02DE9F0435A4B5B4D38
:100EC000D3F890302C68C3F307239C4285B000F21E
:100ED000A780FFF7C1FF00200C2684421AD1544E90
:100EE000DFF8449134706846FFF752FB514C524D85
:100EF00080460027B84514D133784B490020D1F8FB
:100F00009020C2F307229342C0F28480FFF798FF3B
:100F1000002045E0696806FB0011FFF747FF01303C
:100F2000DBE7009800EB07114FEA071CCB68234072
:100F3000B3F5000F4DD00AD8B3F5001F33D0B3F589
:100F4000800F3BD0B3F5801F13D00137D2E7B3F148
:100F5000007F47D0B3F1805F4DD0B3F1807FF4D1F3
:100F600050F80C3088684A6801F0DCFF40F0887067
:100F700009E050F80C3088684A6801F0D3FF40F06F
:100F8000885040F43020CDE901230390D9F8903007
:100F90003078C3F30723013B984234D96FF0150032
:100FA00005B0BDE8F08350F80C3088684A6801F05D
:100FB000B9FF40F0885040F40020E4E750F80C30CE
:100FC00088684A6801F0AEFF40F0C06040F400302D
:100FD000D9E750F80C3088684A6801F0A3FF40F068
:100FE0008270D0E750F80C3088684A6801F09AFFA8
:100FF00040F48020C7E750F80C3088684A6801F058
:1010000091FF2843BFE701A9FFF7D0FE33780133F2
:1010100033709AE7C1F89830C1F8A00001336EE749
:101020004FF0FF30BCE700BF00ED00E0483F000894
:10103000740300200000F0FF0000021108B5024B0D
:101040001B689847002008BDA8020020034B044AF3
:101050001860937843F0020393707047A802002051
:101060000400002008B50649064821F00701C1F137
:10107000005202F5003201F045FE002008BD00BF1D
:1010800087110020AC02002007B5084A92E803004F
:10109000CDE9000106488268126822B1694690478E
:1010A00003B05DF804FB6FF05700F9E7743E0008E9
:1010B000683A00081F2809D8012303FA00F0044BFE
:1010C0005B6998430CBF01200020704700207047E7
:1010D000003C014000F01F021F284FF0010303FAFB
:1010E00002F39DBF024A002053616FF01500704764
:1010F000003C0140044B1844002301338B4200F8AC
:10110000012BFADB704700BF3C0000202DE9F041C5
:10111000104F054600264FF001086B78F4B2A34249
:1011200001D8BDE8F0812B781C442046FFF7C2FFB0
:1011300068B12046FFF7CEFF57F834303BB107EBDC
:10114000C40204F01F04516808FA04F098470136FD
:10115000E3E700BFB8020020034660B1B0FA80F2B6
:10116000C2F11F02D2B205498856054A11680B43E5
:101170001360FFF7DFBCFF22F5E700BF3C00002053
:10118000003C0140024A136823EA000313607047E1
:10119000003C0140032921D8DFE801F0020C1019BE
:1011A0000F4B9A6822EA00029A60DA6822EA00028B
:1011B000DA6070470A4B9A680243F5E7084BDA6831
:1011C0000243DA609A6822EA00029A607047044B90
:1011D0009A6802439A60DA681043D860704700BF8B
:1011E000003C014030B5B0B1B0FA80F3C3F11F0349
:1011F000DBB20B4850F833408C4204D100EBC305FE
:101200006D68954205D044B940F8331000EBC30037
:101210004260002030BDFF23EBE76FF00F00F9E7DD
:10122000B802002060B1B0FA80F3C3F11F03DBB253
:10123000044A002142F8331002EBC30251607047A8
:10124000FF23F5E7B802002000F003020432920009
:101250000F23934043EA9000C3B20233054A52F889
:101260002320030C02EA104093FAA3F3B3FA83F3AA
:10127000D84070470038014038B508883B4BC0F370
:101280000B0016281B680D4614463ED810B96FF0A7
:10129000850039E001381528F9D801A252F820F06C
:1012A000FD12000859130008F9120008591300082C
:1012B0005513000833130008431300088F12000869
:1012C0008F1200088F1200088F1200088F1200087A
:1012D0008F1200088F1200088F1200088F1200086A
:1012E0008F1200088F1200088F1200088F1200085A
:1012F000FD120008FD1200084FF4FA43236029682C
:10130000B1F5805F2AD2002038BD44280ED82F289E
:10131000BDD900F57D61C1F30B0101228A4014495A
:101320000A42EBD14028B2D15B08E7E7A828E5D014
:10133000ADE700F0CFF8C0221923B0FBF3F353431D
:10134000F2E700F0C7F8C0221923B0FBF3F35343D0
:101350009B08D3E7074BD1E70023CFE7C1F3133155
:101360000131B3FBF1F32360CDE700BF280000207B
:101370001101100040787D01162808D8054BC340A4
:1013800013F0010F0CBF6FF08500002070476FF065
:1013900085007047EA00600070B5494C494D00F087
:1013A000B9F8204601F0B3FE00F078FBAB68464A7E
:1013B000C3F30313D35C20FA03F613781C41A6424F
:1013C00002D2204600F098FB2B6823F480232B6088
:1013D0002B6843F480332B603A4B1A689103FCD599
:1013E0005A6F42F001025A675A6F9207FCD59A6809
:1013F00002F00C02082A17D11A68950707D41A6858
:1014000042F001021A602F4A13689807FCD52D4B51
:101410009A6822F003029A609A6812F00C0FFBD1CE
:101420009A6822F0F0029A60264D2B6823F08073B0
:101430002B602B689901FCD4244AD2F8043823F499
:101440004033C2F80438D2F8043823F0706343F014
:101450008063C2F8043800F041F82B6843F08073D1
:101460002B60184B1A689201FCD59A6822F0F002A2
:101470009A609A6822F0030242F002029A609A6827
:1014800002F00C02082AFAD1A64202D3204600F04C
:1014900033FB0F4B0A4A1A600A4B9A6822F4E05257
:1014A00042F480529A609A6822F460429A60D3F8BB
:1014B0008C2022F08072C3F88C20002070BD00BF09
:1014C00000D8B8050038024034450008003002401A
:1014D000280000200048704740787D01084B0949EA
:1014E0005A681140084A0A435A605A68074922F468
:1014F00040325A605A681140054A0A435A607047A0
:10150000003802400080BFFF193040000080BFF06B
:1015100019304004064B1A6C42F0805282B01A64B3
:101520001B6C03F080530193019B02B0704700BF16
:101530000038024008B5074802F01AF938B10648E9
:10154000FFF784FD0448FEF7C1FF002008BD6FF0DF
:101550001200FBE79C3B00085D1500080A2838B51F
:10156000074D044604D1AB680D215B6828469847B7
:10157000AB6803485B68E1B29847204638BD00BFBE
:101580009C3B00082DE9F843D0F804900746D9F8B1
:10159000080090460D461E4601F022FDB8F5001FDA
:1015A000044616D12846D9F80840FFF74DFE84427C
:1015B0000CD1294601F014FD0446FFF7E3FD204657
:1015C000FFF730FE00212046FFF7E4FD0020BDE8D4
:1015D000F883B8F5800F20D0B6F1806F19D0B6F13E
:1015E000C06F18D0B6F1007F1AD102260F493A46D3
:1015F0002046FFF7F7FDB0B9D9F80810284601F0EA
:10160000F4FC20463146FFF7C5FD2046FFF7A4FD58
:10161000DCE70126EAE70326E8E76FF08500D6E776
:101620006FF01500D3E76FF00F00D0E73D320008F0
:1016300043681B6803F1140252E8002F42F00102D4
:1016400003F1140040E800210029F3D10D4A934230
:1016500007D0A2F54C42934203D002F55042934288
:1016600003D11A6942F040021A6103F10C0252E8F8
:10167000002F42F4807203F10C0040E800210029A1
:10168000F3D170470010014043681B6803F1140256
:1016900052E8002F22F0010203F1140040E800217B
:1016A0000029F3D10D4A934207D0A2F54C42934250
:1016B00003D002F55042934203D11A6922F040024E
:1016C0001A6103F10C0252E8002F22F4807203F138
:1016D0000C0040E800210029F3D1704700100140C0
:1016E000F8B50C46036941681E682379012B35D093
:1016F0009A1E55425541AD026279022A9CBF384F6D
:1017000037F812C0A27988BF4FF4005C042A28D0B1
:10171000003B18BF01231B03E279012A0A680CBFB2
:101720004FF440770027A642D1681DD121F4B05173
:1017300029430B43D360136923F4405343EA0C035A
:10174000136143681A68536923F440733B43536140
:1017500031684068BDE8F84001F09EBE4FF4C065B6
:10176000CAE74FF48053D7E701F4C0618D421FBF31
:10177000D16821F4C0612943D160426811680A69C7
:1017800002F4405294451FBF0A6922F4405242EAD3
:101790000C020A6142681168CA6802F480529342DE
:1017A0001FBFCA6822F480521343CB6043681A6893
:1017B000536903F440739F421FBF536923F440737E
:1017C0003B43536121683368994206D0406801F079
:1017D00063FE08B923683360F8BD0020FCE700BF52
:1017E000D03F0008F8B543681D6803691E680B798F
:1017F000012B0C461AD0991E4A424A41920294F893
:1018000005C0A779BCF1020F96BF2B494FF40051D8
:1018100031F81C10042F00D083B1A3F1030EBEF1E8
:10182000010F06D86FF085031846F8BD4FF4C0626B
:10183000E5E70BB1042FF5D04FF48053B1F5805F8D
:1018400031D0B1F5405F30D000290CBF0121032118
:101850008C45E7D15BB3002A0CBF042303239F42CE
:10186000E0D1E37963B1012BDCD1144B9D4207D069
:10187000A3F54C439D4203D003F550439D42D1D183
:10188000EB6823F40053EB602146FFF729FF034682
:101890000028C7D1EA6842F40052EA6094E80300E5
:1018A00086E80300C0E70021D2E70221D0E7002A42
:1018B0000CBF03230223D2E7D03F000800100140F1
:1018C0004FF0E0230D4A9969126818699B69002955
:1018D00008BF1146002B08BF134610F4803F08488C
:1018E00001D1994205D20168114401604FF0E02115
:1018F000096900681044C01A704700BF4003002007
:1019000038030020094B102283F82320084B4FF4A2
:1019100016521A60074B002018604FF0E02342F285
:101920007F525A61072298611A61704700ED00E00A
:101930004003002038030020684620F007018D4650
:10194000F1B501F0F5FE0446FFF7BAFF124A13485D
:10195000D2E9005103685B19114D41F10001C2E960
:101960000031D5E900614FF41652002707609B1B38
:10197000B3FBF2F002FB00F39B1941F10001C5E952
:101980000031084B21461F6000F0BCFEFFF778F9DC
:10199000BDE8F14085467047700000203803002004
:1019A000680000203C0300202DE9F0418046FFF74D
:1019B00087FF2949294F2A4E4FF0E0234FF0000EB0
:1019C0009C693568D1E90032C3182648C0F800E0A8
:1019D000D7E9000C42F100021F1A62EB0C0CF4452F
:1019E000C1E9003235DB204B1B684FF4165013EB76
:1019F0000803A3FB00324EEB0E0E00FB0E22DB1B96
:101A000040F2014062EB0C02834272F1000020DBE5
:101A1000B3F1807F72F1000201DB6FF07F434FF082
:101A2000E0223360013B96695361002393610F4BC1
:101A30004FF000725A60B442D1E900303ABF6219E7
:101A4000921BA21BD31840F10000C1E90030BDE891
:101A5000F0814FF48063E2E770000020680000200E
:101A600040030020380300203C03002000ED00E08C
:101A700010B5074B1C68074B1B68E41AFFF720FFE3
:101A80004FF416532044B0FBF3F0034B186010BD25
:101A900070000020680000203C03002008B51349B6
:101AA0008B6803F00C03042B1CD0082B1CD14A6854
:101AB0004B68496813F4800314BF0D480D48C1F307
:101AC000881118BF002302F03F02A1FB0001FEF7BE
:101AD0003FFB064B5B68C3F3014301335B00B0FB84
:101AE000F3F008BD0248FCE70248FAE7003802407C
:101AF00040787D010024F400002850D02A4B1B6858
:101B000003F44043B3F5404F19D1284B984218D8FD
:101B1000274B984217D8274B984294BF00230123A4
:101B200021490A6802F44042B2F5004F10D1204A20
:101B300090420AD9D3B1012B38BF012308E000231A
:101B4000EEE70323ECE70223EAE71A4A9042F2D8D1
:101B50000A6802F44042B2F5804F0CD1144A904218
:101B600006D9D3B1012B38BF012304E00223EFE7EC
:101B7000104A9042F6D810490A6822F007021A4328
:101B80000A600A6802F0070293420AD0086800F06F
:101B90000700C01A18BF012070470223EBE701209D
:101BA00070470020704700BF00700040804A5D050C
:101BB0000090D00380C3C901003C024038B5EFF368
:101BC0001185102383F31288BFF36F8F064B9C6837
:101BD00001F0E1FD85F31188BFF36F8F2046BDE86A
:101BE0003840FFF75DB800BF4403002038B50A4B0A
:101BF00053F82040013053F82050A54200D838BD9A
:101C0000606830B1037EDB0701D401F099FD083430
:101C1000F3E723689847FAE7B83F000870B52D4B03
:101C20002D4C2E4D012286B01A70AC421CD30320DD
:101C3000FFF7DCFF0420FFF7D9FF294C294D26468A
:101C4000AE4204F1300413D300F092FB244CAC42BA
:101C50002AD300F0A1FBFEF7F3FB234A938923F07C
:101C60000103938106B070BD54F8043B9847DCE74C
:101C700054F80C3C059354F8103C049354F8143C6D
:101C8000039354F8183C029354F81C3C019354F805
:101C9000203C009354E90A2354E90C0100F0D2F8E7
:101CA00054F8303C5E65CAE7D4E90A23B3F1FF3F3C
:101CB00008BFB2F1FF3F05D052EA0301206803D10B
:101CC00000F01CF93034C2E70849183000F02AFC53
:101CD000F8E700BF75030020D83D0008D83D000894
:101CE000D83D0008D83D0008F800002067380008FB
:101CF00070B5002386B00122CDE90423134E144DA4
:101D000001930F22CDE902321249142303FB00553F
:101D100006EBC01604464FF4C07000FB04110E4BD6
:101D200000954FF4A072304600F08CF8337C0B4ADB
:101D3000EE6023F0040333744FF4046304FB0333B5
:101D400013442C746B6006B070BD00BF7800002097
:101D500044030020C00B00209D37000880030020B2
:101D60007FB50020FFF742FF2C4B83F308882C4CF3
:101D70002C4D636943F400736361F02384F82230CF
:101D80000023E37723766376A37684F82030636AB2
:101D900043F4E0236362FEF78BFEFEF76BFF4FF028
:101DA000FF33A362E362FFF787F8FEF7E3FF1E4805
:101DB0001E4C00F097F8FEF7D3FBAC422AD301206B
:101DC000FFF714FF0220FFF711FF00F0C9FA184BCC
:101DD000184C5C61184B05930025012317490095A9
:101DE0004FF48062CDE90353CDE90155144B2046F1
:101DF00000F028F8237C064623F0040320462374D1
:101E000001F00AFD2846FFF773FF0D4A31462046D0
:101E1000FEF712FF54F8043B9847CEE7C00B0020B2
:101E200000ED00E0D83D000878010020D83D000812
:101E300044030020F800002012450008400D002057
:101E40001D1C00082DE9F043073285B01F4622F023
:101E5000070200F15803C0E916337F32109B8381DB
:101E600000250E4622F03F020F9981730423C0E93A
:101E70000655044685600374C573002100203F2A7F
:101E8000C4E90A0106F14009A2F1400805D885F32A
:101E90001188BFF36F8F184602DFB5182946204618
:101EA000FEF7F2FB07300E9B20F00700A066C4E9A6
:101EB000189802930D9B01932D1A0C9B00932A46B0
:101EC0003B4631462046FEF785FE00236365044B02
:101ED0009B6803B1DB6EE366284605B0BDE8F0837E
:101EE000440300200123037483810023C0E91833D5
:101EF000C366014B986070474403002038B5044620
:101F0000EFF31185102383F31288BFF36F8F037CE7
:101F10005B070FD5183000F09DFB237C23F00403F2
:101F20002046237401F087FC29460548BDE8384067
:101F300001F0AEBC85F31188BFF36F8F38BD00BFD1
:101F400076030020094A93686FF00A0199670849EF
:101F500058674B6843F080534B60002383F311882C
:101F6000BFF36F8F9368986F704700BF44030020E2
:101F700000ED00E038B590F91020037C002A0146FE
:101F800004DA03F07F03037401F034FC0D4D2A469C
:101F9000AB6852F8184F944200D004B9EC688B42F9
:101FA00007D01A7CD20604D1DA897F2A01D9A26926
:101FB0002AB1A34202D0204601F086FC23466B6181
:101FC00038BD00BF4403002070B590F91020037C99
:101FD000002A2FDBD9062DD11A4C63F07F0322464D
:101FE000037452F8183FE169934207D1C0E9002118
:101FF0000860E0610FE09942F8D01B68002BF5D033
:1020000093F90E6090F90E50AE42F4DD5968C0E9C4
:10201000003108605860A569954200D005B9E568AF
:10202000A3681A7CD20606D1DA897F2A03D9AA6965
:102030000AB9636170BDAB4202D0284601F044FC8E
:102040006561F7E744030020034648B9EFF30582D2
:1020500032B9064A51699268914201D0FFF772BFC6
:1020600083F31188BFF36F8F704700BF44030020D4
:1020700038B5184CA168E0690B68814214BF1A4654
:10208000002249680B605960A368E1692AB9124AC5
:10209000C3E900210B60E3610AE092F90E5093F965
:1020A0000E00854212DD5168C3E900210B605360C8
:1020B000A569094B9D4200D005B9E568A3689D421A
:1020C00002D0284601F000FC656138BD8A42DED0AE
:1020D0001268DBE7440300205C0300202DE9F8438D
:1020E000002A027C0CBF4FF010084FF0080818EAD5
:1020F000020F04460D4662D148EA0203D2090CD110
:102100000374B8F1080F7BD1A36813B1204601F026
:1021100079FB04F1180610270FE003F07F03037426
:1021200001F068FBEDE785F31188BFF36F8FEFF3E4
:10213000118587F31288BFF36F8F304600F08AFA5B
:102140000B30F0D0A66D04F15807B74211D04FF014
:10215000000976B1304601F055FBC6F8789006F1DB
:10216000180000F077FA3046FFF72EFFA66DB74251
:10217000EFD1274B9B689C4242D1EFF30587003F8C
:1021800018BF0127DFF888904B4653F8186F9E421E
:1021900000D00EB9D9F80C60D9F80830B34202D09B
:1021A000304601F091FBB8F1100FC9F8146006D069
:1021B000204600F0A0FE17B11648FFF793FE144B1F
:1021C0009B68A3421ED1EFF30583DBB9A289D20736
:1021D00011D585F31188BFF36F8F83F31188BFF397
:1021E0006F8F0423184602DFEFF31185102383F36A
:1021F0001288BFF36F8F2846BDE8F843FFF7A2BEF1
:102200000027BFE785F31188BFF36F8FBDE8F88320
:10221000440300207801002070B50F4D2B46064680
:1022200053F8184F9C4200D004B9EC68AB681A7C94
:10223000D20604D1DA897F2A01D9A2692AB1A34240
:1022400002D0204601F040FB23466B613046BDE8DA
:102250007040FFF7F9BE00BF4403002070B5EFF3F4
:102260001186102383F31288BFF36F8F1A4CA16875
:10227000E0690B68814214BF1A46002249680B606E
:102280005960A368E1692AB9144AC3E900210B60C7
:10229000E3610AE092F90E5093F90E00854216DDD3
:1022A0005168C3E900210B605360A5690B4B9D4247
:1022B00000D005B9E568A3689D4202D0284601F028
:1022C00003FB65613046BDE87040FFF73BBE8A42C4
:1022D000DAD01268D7E700BF440300205C03002077
:1022E000F8B550EA010305460C4603D101F080FA27
:1022F0000020F8BDEFF31187102383F31288BFF39A
:102300006F8F134E134BB068186001F096FAB068E7
:1023100011492A462346183000F004F9B3681A7CA4
:102320005F6742F004021A746FF00A029A670B4A60
:10233000536843F0805353600446002383F31188AD
:10234000BFF36F8F01F0C7FA201A20EAE070D0E7E0
:1023500044030020640300206738000800ED00E01B
:10236000024B03F11802C3E9062270474403002020
:10237000EFF31181102383F31288BFF36F8F054BA6
:102380009A68D37B013BD37381F31188BFF36F8FBE
:10239000704700BF44030020EFF31180102383F344
:1023A0001288BFF36F8F034B9A68D37B0133D373CB
:1023B000FFF732BF44030020014B9868704700BF0D
:1023C00044030020027C12F01F02034610D10A4988
:1023D00088420DD00949086868B1D9897F2909D890
:1023E00093F90E20064B1B689A42B8BF0020704735
:1023F0000020704710467047780000202C00002015
:1024000068030020044BC01A044BC0105843044B0F
:1024100001221A54704700BFF8010020ABAAAAAAF3
:1024200076030020F8B50B4B0B4D1E7C0B4F182389
:1024300003FB06550446284600F00CF934B1BB5D99
:102440000749E21AD317284600F06CF80023BB5561
:10245000F8BD00BF44030020F801002076030020EF
:1024600005240008F8B5EFF31187102383F31288D1
:10247000BFF36F8F124E134BB5681868A84206D190
:1024800001F022FA87F31188BFF36F8FF8BD0022A5
:102490001A60337C0C4AD35C002BF3D02846FFF73C
:1024A00091FF04460028EDD02B7CDB06EAD1FFF734
:1024B000DFFD7369AB42E5D12046FFF7B3FFE1E7EB
:1024C000440300206403002076030020024B1868B8
:1024D000984208BF00207047340000206FF0004190
:1024E000884208B5024611D2FFF7F0FF08B9881AF2
:1024F00008BDD0E904308B4270F1000002DB0448D3
:10250000801AF5E79A4201D2981AF1E70020EFE726
:10251000FEFFFF7F024B186808B1FFF7A9BA7047AA
:1025200030000020B3F1FF3F08BFB2F1FF3F2DE9BB
:10253000F84F0446984615461E4600F0828081609A
:10254000EFF31187102383F31288BFF36F8FB8F175
:10255000000FDFF8F49025DBFFF7DCFF3B4B1B6837
:10256000003B18BF0123451948F100085B19D9E960
:10257000005648F10001C4E904315D19024641EBFF
:1025800006064FF00108FFF7A1FFDFF8C490D9F865
:1025900004A00346F3B9C4E9009ACAF80040C9F898
:1025A000044029E0D9E900126FF001035B1A4FF0F3
:1025B000FF3161EB02025B1B62EB0802012B72F13F
:1025C0000001BCBF002201234FF00008C0E9043223
:1025D0004246D8E7D3E9040ED4E9041C81427CEBDF
:1025E0000E0B25DA401A6EEB0C01C3E904015968A1
:1025F000C4E900310C605C60FFF768FF84420FD1D2
:10260000124B1B6801330BD1B8F1000F02D1FFF759
:1026100081FF02461046FFF761FF0021FFF7C4F972
:1026200087F31188BFF36F8F28463146BDE8F88FD6
:10263000091A6CEB0E005345C4E90410ABD01B68BB
:10264000A8E700252E46EFE710020020300000200A
:1026500034000020F8B50446EFF31186102383F30D
:102660001288BFF36F8F026872B3FFF72FFF184B0A
:102670005B689C4208D0D2E90431D4E90475DB19C7
:1026800041EB0501C2E90431D4E900320025A04242
:1026900013605A60C4E900550ED000200D4A13683B
:1026A00023F001018C4204BF43F00103136086F361
:1026B0001188BFF36F8FF8BDFFF72CFFFFF70EFFF8
:1026C0002946FFF771F9E8E76FF01500E6E700BF6C
:1026D000340000206C030020EFF31182102383F3F9
:1026E0001288BFF36F8F064B1B6840F001001B1A66
:1026F0005842584182F31188BFF36F8F704700BF73
:102700006C0300202DE9F047DFF8B8902E4CC9F893
:10271000000000232360FFF7D9FE2C4FDFF8B080C4
:102720000E46D7E900ECD9F8005060B1D0E9043189
:102730004FF0000A9D427AEB01021FDA5B1B61F148
:102740000001C0E9043115EB0E054FF000084CF113
:1027500000024FF0FF334046C7E900522360C9F83A
:102760000080FFF7BBFE4146FFF71EF986F3118894
:10277000BFF36F8FBDE8F047FFF774BE13EB0E0E8B
:1027800041EB0C01EB1AC7E900E1C9F80030D0E9D0
:1027900000318268C8F800000B605960C0E900AAE7
:1027A00086F31188BFF36F8F9047EFF311861023E4
:1027B00083F31288BFF36F8FC8F800A0FFF786FE7F
:1027C000AFE700BF7003002030000020100200209F
:1027D0006C03002010B5EFF31184102383F31288EB
:1027E000BFF36F8FFFF796FE054AD2E90031C0189C
:1027F00041F1000184F31188BFF36F8F10BD00BF5A
:10280000100200202DE9F04F8BB0436800938378CD
:102810009C078046924640F1F98000250878002800
:1028200000F0F68025280AD04B1C01930135414663
:10283000009B98470028C0F2E3800199EEE74E78AC
:102840008B1C252E0193F1D00027B9463C460A2265
:102850001F2C22D8A6F12003102B20D8DFE803F08C
:10286000141F1F1A1F1F1F0B1F1F1F121F171F1FB1
:10287000090044F00104019B13F8016B0193002E41
:10288000E6D13AE044F0020444F00404F3E744F0F3
:102890000804F0E744F01004EDE77F2C24D8A6F1FB
:1028A0003003092B08D860064EBF02FB073702FB36
:1028B000093944F02004DEE72A2E0DD161065AF8CA
:1028C000043B53D4002BA7BF44F020049946C3F126
:1028D000000944F02804CEE72E2E05D1630600F14E
:1028E000978044F04004C6E76C2E2ED028D8682E7E
:1028F00032D06A2E37D04C2E35D0002F46F0200330
:10290000B8BF24F04004A3F16502BCBFA4B2002705
:10291000022A01D9612B2BD10AF1070A2AF0070AF2
:102920009C4E0AF1080A0727210760D506EB070B22
:1029300034465C455DD1AE1BA219A9EB070959E1EC
:10294000742E98D07A2E96D0D7E7260648BF44F446
:10295000007444F080048EE7E00548BF44F400743E
:1029600044F4807487E744F4207484E71F4682E7C8
:10297000A6F16302122A00F2D880DFE812F01300F9
:102980004D00D600D600D600D6004D00D600D600A9
:10299000D600D600D600E800D100D600D6001A0036
:1029A000D600A0005AF8043B8DF81030012704AE81
:1029B000BAE75AF8046B784B002E08BF1E4614F095
:1029C000400F14BF39464FF0FF31304600F09DFFF5
:1029D0000746A9E7009B41462020984700280FDBC7
:1029E000013CA742F6D34D442D1BA1469EE74C4621
:1029F000F7E714F8010B009B41469847002898DA46
:102A000098F8023043F0040388F802304FF0FF35A5
:102A100028460BB0BDE8F08F220630D5A3052AD595
:102A20000AF1070A2AF007039A4659685AF8080B70
:102A300024F0100B00291FFA8BFB2FDA404261EBC8
:102A400041014BF4806B04AC0A23224600F069FF7D
:102A50001BF0400FA0EB040200F08E802BF001046D
:102A60009742A4B240F38F80002E40F08E802BF06E
:102A70001104A4B21DE05AF8040BC117D8E7E00511
:102A80005AF8041B01D40846F7E7A2054BBF48B229
:102A900008B241F3C01141F3C031C9E750EA010364
:102AA000D1D16306CFD5002FCDD124F01104A4B22B
:102AB0003A463B4640F206410C4262D124E024F003
:102AC0001004A4B20A2314F0800243D014F400715D
:102AD0001FBF0AF1070A2AF007029246516814BF85
:102AE0005AF8080B5AF8040B50EA01023ED124F0C0
:102AF000160B62061FFA8BFB3CD5002F3AD124F04F
:102B00001704A4B23A463B4621075AD4E10705D53B
:102B1000994572DDA9EB03039F184B469B464AE09B
:102B200044F0100410237826CDE7782B04D1C6F1A9
:102B3000780343F01003C6E7009B414625209847E1
:102B40000028FFF65DAF02354146304670E60823A7
:102B50000026B8E714F480715AF8040BC4D014F4BA
:102B600000711ABFC0B2114680B2BDE724F006045E
:102B70001FFA84FB04AC68E713465C46E10699D56E
:102B80002EB90133C0E71346F8E73B46F6E70233B8
:102B9000BAE700BF1E45000817450008CDE902321C
:102BA0004146009B202098470028FFF629AFDDE929
:102BB00002320BF1010BD945F0DCEB1A03EB0B05EC
:102BC0005B46E10627D5CDE902324146009B302025
:102BD00098470028FFF614AFDDE902327EB90135CF
:102BE0002F44791B8A4229DB144604AE9CBB2A443D
:102BF000A9EB03091546914442E017468EE7CDE95B
:102C00000232023541463046009B98470028DDE9F4
:102C10000232E5DAF4E640F206410C42E0D014F06C
:102C2000020F14BF2B20202014F4806FCDE9023254
:102C300005F10105414618BF2D20E5E7CDE9023237
:102C40004146009B302098470028DDE9023205F11B
:102C50000105C6DAD4E6013CCDE90232305D009BC5
:102C6000414698470028DDE90232BFDAC8E6009BFA
:102C7000414620209847002805F10105FFF6C0AE27
:102C8000A9EB0503002BF2DCD7E500BF7047012359
:102C900003FA01F103691B68194218BF82F00102AF
:102CA00083680AB1DB6818471B69FCE700EBC100C9
:102CB000408840087047F8B50346FFF7F7FFB0FAC1
:102CC00080F0C0F11F0003EB800CCA00DCF810603C
:102CD000171D0C4606328DB256B9012101FA00F0DB
:102CE000D9680143D960CCF81040DD539D52F8BD3E
:102CF000F1000431585AD85303EBC0009E52C580EE
:102D00005D52F4E7043A2DE9F843CC1D114424F058
:102D1000070421F00706A6EB04084FEAD807B7FA24
:102D200087F2C2F12405AD004FF000090735C2F16A
:102D30002002ED0804604946A760C4F80C90920098
:102D400004F1100000F0D9FDAAB2530043F00103D2
:102D500063807B1B9BB204EBC5015800A4F8009074
:102D6000488024F83520A6F8029024F8083004EBB7
:102D7000C70329465A8842F001025A802046BDE81E
:102D8000F843FFF798BF002070470FB407B504A9B8
:102D900051F8040B0191FDF79FFB03B05DF804EBC4
:102DA00004B070477047F0B5406802F4C04544680D
:102DB000B5F5804F4FF0010000FA01F074D10729FA
:102DC000C2F343255AD890FAA0F3B3FA83F3266AE4
:102DD0009B000F2707FA03F326EA030690FAA0F3F5
:102DE000B3FA83F39B0005FA03F333432362656868
:102DF000C2F3C0338B4025EA00010B43636090FAB5
:102E0000A0F1B1FA81F1A5680326490006FA01F1A3
:102E100025EA010590FAA0F1B1FA81F1C2F301436C
:102E200049008B402B43A36090FAA0F1B1FA81F1E5
:102E3000E568490006FA01F125EA010590FAA0F1DA
:102E4000B1FA81F1C2F3814349008B402B43E36027
:102E500090FAA0F3B3FA83F3216890FAA0F05B0034
:102E6000B0FA80F006FA03F34000C2F3413221EADF
:102E7000030382401A4322600020F0BD030A93FA44
:102E8000A3F6B6FA86F6676A93FAA3F3B6004FF094
:102E90000F0CB3FA83F30CFA06F69B0027EA06063A
:102EA0009D4035436562A2E7B5F5005FA7D166682E
:102EB000C2F3C03505FA01F126EA00052943616035
:102EC000002B9CD0D30256BF0304A061A36196E7F8
:102ED00000F013BD00F003BD01460068FDF7A0BB84
:102EE00008B5FDF7CDFBBDE80840FDF7C9BE0021E0
:102EF0000120FDF795BB6FF08500704761B662B6A3
:102F000080F31188BFF36F8F704772B6002383F38D
:102F10001188BFF36F8FBFF34F8F30BF62B6BFF31F
:102F20006F8F7047202809D9B0F1004F08D80138B9
:102F3000B0FA80F0C0F11F004000704708207047D1
:102F40003E20704708B5FEF779F8002008BD08B5A7
:102F5000062201210020FEF7CDF8002211460620AE
:102F6000FDF7F6FD012108460722FEF7C3F800220F
:102F700011460720FDF7ECFD082201210220FEF793
:102F8000B9F8002211460820FDF7E2FD09220121CF
:102F90000320FEF7AFF8002211460920FDF7D8FD07
:102FA0000A2201210420FEF7A5F8002211460A207A
:102FB000FDF7CEFD052108461722FEF79BF80022FB
:102FC00011461720FDF7C4FD282206210A20FEF72E
:102FD00091F8002211462820FDF7BAFD002008BD17
:102FE00001F01F0101208840704700F00302043205
:102FF00092000F23934043EA900010B5C3B29B00A8
:1030000003F1804303F59C33020C9C6892FAA2F210
:10301000B2FA82F224EA104091400143996010BD57
:103020000B88C3F30B0303F57D62C2F30B02782A0E
:1030300082B014D803F1804303F50E3348681A6850
:1030400002431A600B88C3F30B0303F1804303F5BB
:103050000E3300201B680193019B02B070476FF094
:103060008500FAE70B88C3F30B0303F57D62C2F317
:103070000B02782A9FBF03F1804303F50E334968A2
:103080001A689DBF8A4300201A606FF08500704760
:1030900070B508884A68C0F30B0094B2C2F30445C7
:1030A000FEF76AF9A0B9FF2A11D004F18041C2F3FA
:1030B000415601F50E3101360123B3400C68013B46
:1030C000AB40120E24EA0303AA4013430B6070BD09
:1030D0006FF08500FBE70888C0F30B0008B500F52A
:1030E0007D63C3F30B03782B0AD800F1804000F511
:1030F0000E304B68026893430CBF0220012008BDCC
:10310000FEF73AF900280CBF02200120F7E77047CC
:1031100043685B681B690B600020704743685B680D
:10312000586942400A4042405A6100207047436853
:103130005B6800209961704743685B680904996186
:103140000020704743685B685A695140596100200C
:10315000704730B50369986800B30024884219D1DC
:1031600008688CB9DC689860A14200D1D860002062
:1031700008602AB19A680A60DA68996002B9D96071
:1031800000200FE02846E9E72060D868814208BFA8
:10319000DC60ECE705680446002DF3D1002AE9D194
:1031A0006FF0150030BDF8B512F4003407690D4614
:1031B00002F030061DD0940718D551073BD54FF4C7
:1031C0002044130301D544F48014102E2ED144F46E
:1031D000802412F4403611D0796821FA05F3DB0718
:1031E0005FBF0123AB400B437B6007E04FF400540B
:1031F000E7E7D103E9D4F6B94FF4C04402F4402321
:10320000D201003B02F4403218BF01232243294679
:10321000FFF7C9FD46B97B6823FA05F2D20741BF23
:103220000122AA4093437B600020F8BD202E08BFF6
:1032300044F40024CDE76FF08500F6E770B50B6924
:103240000E469968054609B10C6801B970BD8A68D7
:103250002A4002D04B68304698471CB1236821466B
:103260001C46F2E72346FAE730B503681360057998
:10327000046804EBC504A34202D36FF0010030BD23
:103280005C798C4203F10803F0D10020F7E7F8B530
:10329000044600EB8105AC4201D100200FE054F858
:1032A000046B06F01F00C6F34317FDF747F938B16A
:1032B000012332463946FFF776FD0028EBDAF8BDE8
:1032C0006FF01200FBE74368C1F34B101B6801F07D
:1032D0001F01C05801238B400340003B18BF01234E
:1032E00013700020704710B54368C1F34B101A6883
:1032F00001F01F01845801238B4023438350002099
:1033000010BD10B54368C1F34B14186801F01F01DC
:10331000235801228A4023EA02032350002010BDD3
:1033200038B504460D46FFF7DEFF29462046FFF775
:10333000E8FF002038BD82B003680193019B436819
:103340000193019B02B0704708B543681868026892
:103350000368C2F3C00203F0010342EA43020368B8
:103360009B07036848BF42F004025907036848BF3F
:1033700042F02002DB0542BF6FF4807342F0080286
:103380000360D10701D5FFF7D6FF930701D5FFF7FB
:10339000D2FF510701D5FFF7CEFF930601D5FFF706
:1033A000CAFF104608BD43681A6802F10C0353E8CF
:1033B000003F43F0400302F10C0040E800310029D7
:1033C000F3D1704743681A6802F10C0353E8003FD9
:1033D00023F0400302F10C0040E800310029F3D152
:1033E000704743681B68186810F080001CBFD868DD
:1033F000C0F38010704743681B681868C0F38010E2
:10340000704743681A6802F10C0353E8003F43F029
:10341000200302F10C0040E800310029F3D170478D
:1034200043681A6802F10C0353E8003F23F02003BD
:1034300002F10C0040E800310029F3D170474368E5
:103440001B681868C0F34010704743681B681A680F
:10345000910602D5DA68920607D4186810F0400089
:1034600004D0D868C0F3801070470120704703690A
:10347000C3E901127047026953680BB1916818479C
:10348000704708B5002225201146FDF761FBBDE815
:1034900008402520FDF74EBB37B5034604680D46AE
:1034A00019B96FF0150003B030BD40681969836821
:1034B000DB6803B301AA98470028F4DBE3680199AD
:1034C00023F400431920E360AA00AB0FA1FB000125
:1034D000FCF73EFE6422B0FBF2F102FB11031B017C
:1034E0003233B3FBF2F303EB01130F2BD9D99BB2A9
:1034F000A3600020D7E76FF05700D4E708B5436812
:10350000186803681A0701D5FFF715FF03689B06C3
:1035100043BF43680B7000204FF0FF3008BD10B56B
:1035200043681B6810201A681206FCD5EFF311825D
:1035300080F31288BFF36F8F1C68240604D482F3D3
:103540001188BFF36F8FEEE7596082F31188BFF3E4
:103550006F8F10BD2DE9F3414768064678683969D9
:1035600083681B68002B4AD09847041E43DB786AA7
:1035700001AA0021FFF778FE041E3CDB019B00221C
:1035800019791868FFF783FE041E34DBD6F804802F
:103590003369D8F800501C68EB6823F40053EB60E3
:1035A000D8F8080000F0E4F860B3D8E902018368B5
:1035B000DB6803B1984705F10C0353E8003F43F083
:1035C0000C0305F10C0141E80032002AF3D1214639
:1035D0003046FEF785F80446B8B998F818301BB1A4
:1035E0006B6943F008036B61EB6843F40053EB60D5
:1035F000BB6A30469847204602B0BDE8F0816FF0C4
:103600005704F8E76FF01204F5E76FF01504F2E7DE
:1036100010B543681868C468C36814F4805403D0B4
:1036200013F4C06F12D00024131B002B02DD0368BB
:103630009B0601D4204610BD43680B5503681B0749
:1036400004F10104F0D5FFF776FEEDE76FF0850495
:10365000F0E730B543681B68DC68D868E40402D53D
:1036600010F4C06F1AD0186810F080000ED0EFF37D
:103670001184102080F31288BFF36F8F0020151A79
:10368000002D04DC84F31188BFF36F8F30BD1D68FB
:103690002D06F7D50D5C5D600130F0E76FF0850019
:1036A000F4E703691B681B680B6043681B68DB68F1
:1036B00003F4C063B3F5806F2FD0A3F5C06CDCF1C9
:1036C000000343EB0C030B7143681B681B6903F495
:1036D0004053B3F5805F22D0B3F5405F21D0002B7B
:1036E0000CBF012303234B7143681B68DA68DB6856
:1036F000D20403F4C06316D5002B0CBF04230323AC
:103700008B7143681B685B6903F44073A3F54072D7
:1037100053425341CB71002070470223D3E700236B
:10372000E1E70223DFE7002B0CBF03230223E7E7D7
:10373000EFF31180102383F31288BFF36F8F70476C
:1037400010B5436904463BB90020E268537843F062
:1037500001035370404210BD98470028F4D0002860
:10376000B8BF4042E368FF28A8BFFF201870ECE70D
:1037700040B1C368587810F001001EBF1878B0FA45
:1037800080F040097047EFF31183102383F3128810
:10379000BFF36F8FFEE708B5FFF7F5FF10B51024F4
:1037A000EFF3118384F31288BFF36F8FFFF7ADFB44
:1037B000F6E738B58589EFF31181102282F312887C
:1037C000BFF36F8F037C13F0080404D081F31188DA
:1037D000BFF36F8F38BD0122FEF780FCEB07F9D5F0
:1037E00084F31188BFF36F8F0423184602DFF1E7DB
:1037F000FEF734BDD0E9003213605A600023C0E9FF
:103800000033704708B5FFF7F5FF037C23F0020390
:1038100003740023836008BD10B5EFF311841023F7
:1038200083F31288BFF36F8FFEF7CEFB84F311880A
:10383000BFF36F8F10BDFEF7C7BBFEF79BBB08B58C
:10384000037C13F0280F01460CD183680BB1FFF7FE
:10385000D9FF0B7C23F004030B740846BDE8084035
:10386000FEF7B2BB08BD38B50446EFF3118510234F
:1038700083F31288BFF36F8FFEF72EFF18B9A4F100
:103880001800FFF7DCFF85F31188BFF36F8F38BD99
:103890000846FEF7D9BB38B505460C46FEF720FDB5
:1038A000B4F1FF3F08BFB5F1FF3F0AD0C11709309F
:1038B0004FF00A024FF0000341F10001FCF748FC11
:1038C00038BD4FF0FF30FBE708B5FEF77BFDBDE8E4
:1038D0000840FEF7A7BD08B5FEF77CFF08BD0A4407
:1038E000914200F1FF3300D1704710B511F8014B40
:1038F00003F8014F9142F9D110BD024403469342AF
:1039000000D1704703F8011BF9E710B502460144E6
:103910008A42134603D01C780132002CF8D1181AC1
:1039200010BDF0B5C3F137070446FFB203F01F0323
:103930001046082BE6B233D0102B3ED06508A40801
:1039400044EA817445EAC1752D194FEA910242EBB0
:103950005102290941EA02716D1842EB1212290A3B
:1039600041EA02616D1842EB1222290C41EA024140
:103970006D1842EB1242AD1842F10002EC0844EA25
:103980004274D10804EB8402A6EB4205EDB2092D86
:103990000CD90134A5F10A0541F10001EDB212E0A4
:1039A000E40844EA417406F00705C908303554EAD2
:1039B000010200F8015BBCD1F0BD240944EA0174A6
:1039C00006F00F050909092D84BFED19EDB2EDE7E9
:0839D000B4C7FF7F01000000F5
:1039D80000000000683A000809050008000000001F
:1039E80000000000843A000800000000483B00087E
:1039F80000000000643B0008000000002C3B0008A9
:103A080000000000803B000800000000103B000898
:103A180000000000F43A000800000000D83A00084E
:103A280000000000BC3A000800000000A03A0008AE
:103A38004F2F000800000000000000009C3B000819
:103A480035150008000000000519000800000000F6
:103A58006510000800000000B10400080000000024
:103A6800E4440008000000000C3E00085E0000204E
:103A7800000000009913000800000000F14400084D
:103A8800683F0008FC3D00086000002000000000BE
:103A980000000000000000003A4000087C3E0008DA
:103AA800D83D00084C000020180200201D05000821
:103AB8000000000048400008903E0008D83D00087B
:103AC8004E000020280200201D050008000000000C
:103AD80056400008A43E0008D83D000850000020C9
:103AE800380200201D05000800000000644000089E
:103AF800B83E0008D83D00085200002048020020C7
:103B08001D0500080000000072400008CC3E0008B7
:103B1800D83D000854000020580200201D05000868
:103B28000000000080400008E03E0008D83D000882
:103B380056000020680200201D0500080000000053
:103B48008E400008F43E0008D83D000858000020C8
:103B5800780200201D050008000000009C400008B5
:103B6800083F0008D83D00085A00002088020020BD
:103B78001D05000800000000C64400080000000001
:103B8800000000005C000020000000008910000810
:103B980000000000024500086C3F0008283E0008AD
:103BA80062000020140000205535000800000000C5
:103BB80000000000EF2E000800000000EF2E0008B3
:103BC80000000000EF2E000800000000EF2E0008A3
:103BD80000000000EF2E000800000000EF2E000893
:103BE800324500080D110008304500080D11000885
:103BF8002E4500080D1100082C4500080D1100087D
:103C08002A4500080D11000800000000EF2E0008EA
:103C180000000000EF2E000800000000EF2E000852
:103C280000000000EF2E000800000000EF2E000842
:103C380000000000EF2E000800000000EF2E000832
:103C480000000000EF2E000800000000EF2E000822
:103C580000000000EF2E000800000000EF2E000812
:103C680000000000EF2E0008284500080D1100088C
:103C780000000000EF2E000800000000EF2E0008F2
:103C880000000000EF2E000800000000EF2E0008E2
:103C980000000000EF2E000800000000EF2E0008D2
:103CA80000000000EF2E000800000000EF2E0008C2
:103CB80000000000EF2E000800000000EF2E0008B2
:103CC80000000000EF2E000800000000EF2E0008A2
:103CD80000000000EF2E00089C3B00087734000825
:103CE80000000000EF2E000800000000EF2E000882
:103CF800264500080D11000800000000EF2E0008FE
:103D080000000000EF2E000800000000EF2E000861
:103D180000000000EF2E000800000000EF2E000851
:103D280000000000EF2E000800000000EF2E000841
:103D380000000000EF2E000800000000EF2E000831
:103D480000000000EF2E000800000000EF2E000821
:103D580000000000EF2E000800000000EF2E000811
:103D680000000000EF2E000800000000EF2E000801
:103D780000000000EF2E000800000000EF2E0008F1
:103D880000000000EF2E000800000000EF2E0008E1
:103D980000000000EF2E000800000000EF2E0008D1
:103DA80000000000EF2E000800000000EF2E0008C1
:103DB80000000000EF2E000800000000EF2E0008B1
:103DC80000000000EF2E000800000000EF2E0008A1
:103DD800A7310008113100081D3100082F310008F3
:103DE80039310008453100088515000853310008AD
:103DF80000000000C7320008E7320008033300085B
:103E08002133000821300008653000080000000058
:103E180079120008D730000800000000913000082F
:103E2800FD3400081F35000849330008E51700086D
:103E3800A33600085336000811360008A7330008D7
:103E4800C5330008E33300080334000821340008B0
:103E5800F73300083F3400083116000889160008B7
:0C3E68004B340008000000006F3400081C
:103E74004400000000400000FFFF0000001C02405E
:103E8400070000003000000080000000FFFF000079
:103E9400001802400600000030000000400000004E
:103EA400FFFF000000140240050000003000000085
:103EB40020000000FFFF000000100240040000008A
:103EC4003000000010000000FFFF0000000C024062
:103ED400030000003000000008000000FFFF0000A5
:103EE400000802400200000030000000040000004E
:103EF400FFFF000000040240010000003000000049
:103F040002000000FFFF000000000240000000006B
:103F14003000000001000000643B0008483B00083A
:103F24002C3B0008103B0008F43A0008D83A00087B
:103F3400BC3A0008A03A000800000020000000007D
:103F440000000B0602000000503F000800000008BB
:103F5400B74400082400020600000020BF44000803
:103F640020000B110038024000100140683A00089C
:103F7400843A000884040000983F0008010000000F
:103F8400000000000000000000000000A03F000846
:103F9400833400084400000010000000A83F00081B
:103FA40001000000B03F000802000000204F0400A0
:103FB400404F0000D8390008D8390008503A0008AA
:103FC400583A0008603A0008683A000800100000F7
:103FD40000304750494F206973206E6F742072651A
:103FE400616479004572726F7220636F6E666967EF
:103FF4007572696E67204750494F002A2A2A204269
:104004006F6F74696E67205A6570687972204F53B8
:10401400206275696C642076342E342E302D373648
:1040240035332D673534623537643235653065652F
:10403400202A2A2A0A006770696F403430303231EE
:10404400633030006770696F40343030323138305B
:1040540030006770696F40343030323134303000B2
:104064006770696F403430303231303030006770FF
:10407400696F403430303230633030006770696FBC
:10408400403430303230383030006770696F40343B
:1040940030303230343030006770696F4034303043
:1040A40032303030300072302F61313A2020307895
:1040B40025303878202072312F61323A2020307830
:1040C40025303878202072322F61333A202030781E
:1040D400253038780A0072332F61343A2020307842
:1040E40025303878207231322F69703A20203078A8
:1040F40025303878207231342F6C723A2020307891
:10410400253038780A0020787073723A202030788D
:10411400253038780A004661756C74696E672069C9
:104124006E737472756374696F6E20616464726512
:10413400737320287231352F7063293A2030782523
:104144003038780A00556E68616E646C6564204985
:1041540052516E3A2025640A002A2A2A2A2A204D1E
:104164005055204641554C54202A2A2A2A2A0A000E
:104174002020537461636B696E67206572726F727D
:104184002028636F6E746578742061726561206D98
:1041940069676874206265206E6F742076616C694B
:1041A40064290A002020556E737461636B696E671D
:1041B400206572726F720A0020204461746120418C
:1041C40063636573732056696F6C6174696F6E0AFB
:1041D4000020204D4D464152204164647265737342
:1041E4003A20307825780A002020496E737472755D
:1041F4006374696F6E204163636573732056696FDE
:104204006C6174696F6E0A002020466C6F6174697A
:104214006E672D706F696E74206C617A7920737487
:1042240061746520707265736572766174696F6E0E
:10423400206572726F720A002A2A2A2A2A2055538C
:10424400414745204641554C54202A2A2A2A2A0A05
:104254000020204469766973696F6E206279207A40
:1042640065726F0A002020556E616C69676E656423
:10427400206D656D6F7279206163636573730A00E5
:1042840020204E6F20636F70726F636573736F725B
:1042940020696E737472756374696F6E730A00209B
:1042A40020496C6C6567616C206C6F6164206F667B
:1042B400204558435F52455455524E20696E746FE1
:1042C4002050430A002020496C6C6567616C20759E
:1042D4007365206F662074686520455053520A0048
:1042E4002020417474656D707420746F2065786546
:1042F4006375746520756E646566696E65642069AE
:104304006E737472756374696F6E0A002A2A2A2A9E
:104314002A20425553204641554C54202A2A2A2A01
:104324002A0A002020537461636B696E67206572EA
:10433400726F720A0020205072656369736520648D
:1043440061746120627573206572726F720A002055
:10435400204246415220416464726573733A2030AE
:104364007825780A002020496D7072656369736549
:10437400206461746120627573206572726F720AC1
:10438400002020496E737472756374696F6E2062C5
:104394007573206572726F720A0052657365727666
:1043A400656420457863657074696F6E20280053D6
:1043B400707572696F757320696E74657272757049
:1043C4007420284952512000535053454C20696EA3
:1043D40020746872656164206D6F646520646F6524
:1043E40073206E6F7420696E646963617465205014
:1043F40053500A002A2A2A2A2A2048415244204695
:1044040041554C54202A2A2A2A2A0A00202042757F
:1044140073206661756C74206F6E20766563746FAB
:1044240072207461626C6520726561640A002020E8
:104434004465627567206576656E740A00202046BF
:1044440061756C7420657363616C6174696F6E204F
:10445400287365652062656C6F77290A00415243B1
:10446400485F455843455054207769746820726505
:1044740061736F6E2025780A0A002A2A2A2A2A20C4
:104484004465627567206D6F6E69746F722065781C
:1044940063657074696F6E202A2A2A2A2A0A002A00
:1044A4002A2A2A2A20257320256429202A2A2A2A0E
:1044B4002A0A00464C4153485F30005352414D5F35
:1044C4003000696E746572727570742D636F6E74EA
:1044D400726F6C6C6572403430303133633030004D
:1044E4007263634034303032333830300072657375
:1044F40065742D636F6E74726F6C6C657200736596
:104504007269616C403430303131303030006D616B
:10451400696E00286E756C6C29002A666C6F617474
:104524002A000A0605050401030102010101000134
:10453400000000000000000001020304060708094F
:10454400872D000800000000452F0008000000002F
:104554000000000020000020000000000000000017
:1045640000C20100000103000024F400C8000000A0
:10457400FFFFFFFF3400002034000020FFFFFFFF97
:0C458400FFFFFFFFFFFFFFFFFFFFFFFF37
:10459000000000000000000000000000000000001B
:0845A000000000000000000013
:0445A80015E015E025
:0400000508000ADD08
:00000001FF
